{
    "_format": "hh-sol-artifact-1",
    "contractName": "MyEpicNFT",
    "sourceName": "contracts/MyEpicNFT.sol",
    "abi": [
        {
            "inputs": [],
            "stateMutability": "nonpayable",
            "type": "constructor"
        },
        {
            "anonymous": false,
            "inputs": [
                {
                    "indexed": true,
                    "internalType": "address",
                    "name": "owner",
                    "type": "address"
                },
                {
                    "indexed": true,
                    "internalType": "address",
                    "name": "approved",
                    "type": "address"
                },
                {
                    "indexed": true,
                    "internalType": "uint256",
                    "name": "tokenId",
                    "type": "uint256"
                }
            ],
            "name": "Approval",
            "type": "event"
        },
        {
            "anonymous": false,
            "inputs": [
                {
                    "indexed": true,
                    "internalType": "address",
                    "name": "owner",
                    "type": "address"
                },
                {
                    "indexed": true,
                    "internalType": "address",
                    "name": "operator",
                    "type": "address"
                },
                {
                    "indexed": false,
                    "internalType": "bool",
                    "name": "approved",
                    "type": "bool"
                }
            ],
            "name": "ApprovalForAll",
            "type": "event"
        },
        {
            "anonymous": false,
            "inputs": [
                {
                    "indexed": false,
                    "internalType": "address",
                    "name": "sender",
                    "type": "address"
                },
                {
                    "indexed": false,
                    "internalType": "uint256",
                    "name": "tokenId",
                    "type": "uint256"
                }
            ],
            "name": "NewEpicNFTMinted",
            "type": "event"
        },
        {
            "anonymous": false,
            "inputs": [
                {
                    "indexed": true,
                    "internalType": "address",
                    "name": "from",
                    "type": "address"
                },
                {
                    "indexed": true,
                    "internalType": "address",
                    "name": "to",
                    "type": "address"
                },
                {
                    "indexed": true,
                    "internalType": "uint256",
                    "name": "tokenId",
                    "type": "uint256"
                }
            ],
            "name": "Transfer",
            "type": "event"
        },
        {
            "inputs": [
                {
                    "internalType": "address",
                    "name": "to",
                    "type": "address"
                },
                {
                    "internalType": "uint256",
                    "name": "tokenId",
                    "type": "uint256"
                }
            ],
            "name": "approve",
            "outputs": [],
            "stateMutability": "nonpayable",
            "type": "function"
        },
        {
            "inputs": [
                {
                    "internalType": "address",
                    "name": "owner",
                    "type": "address"
                }
            ],
            "name": "balanceOf",
            "outputs": [
                {
                    "internalType": "uint256",
                    "name": "",
                    "type": "uint256"
                }
            ],
            "stateMutability": "view",
            "type": "function"
        },
        {
            "inputs": [
                {
                    "internalType": "uint256",
                    "name": "tokenId",
                    "type": "uint256"
                }
            ],
            "name": "getApproved",
            "outputs": [
                {
                    "internalType": "address",
                    "name": "",
                    "type": "address"
                }
            ],
            "stateMutability": "view",
            "type": "function"
        },
        {
            "inputs": [
                {
                    "internalType": "address",
                    "name": "owner",
                    "type": "address"
                },
                {
                    "internalType": "address",
                    "name": "operator",
                    "type": "address"
                }
            ],
            "name": "isApprovedForAll",
            "outputs": [
                {
                    "internalType": "bool",
                    "name": "",
                    "type": "bool"
                }
            ],
            "stateMutability": "view",
            "type": "function"
        },
        {
            "inputs": [],
            "name": "makeAnEpicNFT",
            "outputs": [],
            "stateMutability": "nonpayable",
            "type": "function"
        },
        {
            "inputs": [],
            "name": "name",
            "outputs": [
                {
                    "internalType": "string",
                    "name": "",
                    "type": "string"
                }
            ],
            "stateMutability": "view",
            "type": "function"
        },
        {
            "inputs": [
                {
                    "internalType": "uint256",
                    "name": "tokenId",
                    "type": "uint256"
                }
            ],
            "name": "ownerOf",
            "outputs": [
                {
                    "internalType": "address",
                    "name": "",
                    "type": "address"
                }
            ],
            "stateMutability": "view",
            "type": "function"
        },
        {
            "inputs": [
                {
                    "internalType": "address",
                    "name": "from",
                    "type": "address"
                },
                {
                    "internalType": "address",
                    "name": "to",
                    "type": "address"
                },
                {
                    "internalType": "uint256",
                    "name": "tokenId",
                    "type": "uint256"
                }
            ],
            "name": "safeTransferFrom",
            "outputs": [],
            "stateMutability": "nonpayable",
            "type": "function"
        },
        {
            "inputs": [
                {
                    "internalType": "address",
                    "name": "from",
                    "type": "address"
                },
                {
                    "internalType": "address",
                    "name": "to",
                    "type": "address"
                },
                {
                    "internalType": "uint256",
                    "name": "tokenId",
                    "type": "uint256"
                },
                {
                    "internalType": "bytes",
                    "name": "data",
                    "type": "bytes"
                }
            ],
            "name": "safeTransferFrom",
            "outputs": [],
            "stateMutability": "nonpayable",
            "type": "function"
        },
        {
            "inputs": [
                {
                    "internalType": "address",
                    "name": "operator",
                    "type": "address"
                },
                {
                    "internalType": "bool",
                    "name": "approved",
                    "type": "bool"
                }
            ],
            "name": "setApprovalForAll",
            "outputs": [],
            "stateMutability": "nonpayable",
            "type": "function"
        },
        {
            "inputs": [
                {
                    "internalType": "bytes4",
                    "name": "interfaceId",
                    "type": "bytes4"
                }
            ],
            "name": "supportsInterface",
            "outputs": [
                {
                    "internalType": "bool",
                    "name": "",
                    "type": "bool"
                }
            ],
            "stateMutability": "view",
            "type": "function"
        },
        {
            "inputs": [],
            "name": "symbol",
            "outputs": [
                {
                    "internalType": "string",
                    "name": "",
                    "type": "string"
                }
            ],
            "stateMutability": "view",
            "type": "function"
        },
        {
            "inputs": [
                {
                    "internalType": "uint256",
                    "name": "tokenId",
                    "type": "uint256"
                }
            ],
            "name": "tokenURI",
            "outputs": [
                {
                    "internalType": "string",
                    "name": "",
                    "type": "string"
                }
            ],
            "stateMutability": "view",
            "type": "function"
        },
        {
            "inputs": [
                {
                    "internalType": "address",
                    "name": "from",
                    "type": "address"
                },
                {
                    "internalType": "address",
                    "name": "to",
                    "type": "address"
                },
                {
                    "internalType": "uint256",
                    "name": "tokenId",
                    "type": "uint256"
                }
            ],
            "name": "transferFrom",
            "outputs": [],
            "stateMutability": "nonpayable",
            "type": "function"
        }
    ],
    "bytecode": "0x60806040523480156200001157600080fd5b506040518060400160405280601981526020017f484f4c49532044414f204d656d62657273686970204e465473000000000000008152506040518060400160405280600b81526020017f484f4c495344414f4d454d000000000000000000000000000000000000000000815250816000908051906020019062000096929190620001cf565b508060019080519060200190620000af929190620001cf565b505050620000fd6040518060400160405280601881526020017f54686973206973206d79204e465420636f6e74726163742e00000000000000008152506200010360201b62000af41760201c565b620003ac565b620001a3816040516024016200011a919062000323565b6040516020818303038152906040527f41304fac000000000000000000000000000000000000000000000000000000007bffffffffffffffffffffffffffffffffffffffffffffffffffffffff19166020820180517bffffffffffffffffffffffffffffffffffffffffffffffffffffffff8381831617835250505050620001a660201b60201c565b50565b60008151905060006a636f6e736f6c652e6c6f679050602083016000808483855afa5050505050565b828054620001dd9062000376565b90600052602060002090601f0160209004810192826200020157600085556200024d565b82601f106200021c57805160ff19168380011785556200024d565b828001600101855582156200024d579182015b828111156200024c5782518255916020019190600101906200022f565b5b5090506200025c919062000260565b5090565b5b808211156200027b57600081600090555060010162000261565b5090565b600081519050919050565b600082825260208201905092915050565b60005b83811015620002bb5780820151818401526020810190506200029e565b83811115620002cb576000848401525b50505050565b6000601f19601f8301169050919050565b6000620002ef826200027f565b620002fb81856200028a565b93506200030d8185602086016200029b565b6200031881620002d1565b840191505092915050565b600060208201905081810360008301526200033f8184620002e2565b905092915050565b7f4e487b7100000000000000000000000000000000000000000000000000000000600052602260045260246000fd5b600060028204905060018216806200038f57607f821691505b60208210811415620003a657620003a562000347565b5b50919050565b612e0e80620003bc6000396000f3fe608060405234801561001057600080fd5b50600436106100ea5760003560e01c806370a082311161008c578063b88d4fde11610066578063b88d4fde1461025b578063c87b56dd14610277578063de9d132f146102a7578063e985e9c5146102b1576100ea565b806370a08231146101f157806395d89b4114610221578063a22cb4651461023f576100ea565b8063095ea7b3116100c8578063095ea7b31461016d57806323b872dd1461018957806342842e0e146101a55780636352211e146101c1576100ea565b806301ffc9a7146100ef57806306fdde031461011f578063081812fc1461013d575b600080fd5b61010960048036038101906101049190611a9a565b6102e1565b6040516101169190611ae2565b60405180910390f35b6101276103c3565b6040516101349190611b96565b60405180910390f35b61015760048036038101906101529190611bee565b610455565b6040516101649190611c5c565b60405180910390f35b61018760048036038101906101829190611ca3565b61049b565b005b6101a3600480360381019061019e9190611ce3565b6105b3565b005b6101bf60048036038101906101ba9190611ce3565b610613565b005b6101db60048036038101906101d69190611bee565b610633565b6040516101e89190611c5c565b60405180910390f35b61020b60048036038101906102069190611d36565b6106e5565b6040516102189190611d72565b60405180910390f35b61022961079d565b6040516102369190611b96565b60405180910390f35b61025960048036038101906102549190611db9565b61082f565b005b61027560048036038101906102709190611f2e565b610845565b005b610291600480360381019061028c9190611bee565b6108a7565b60405161029e9190611b96565b60405180910390f35b6102af6109ba565b005b6102cb60048036038101906102c69190611fb1565b610a60565b6040516102d89190611ae2565b60405180910390f35b60007f80ac58cd000000000000000000000000000000000000000000000000000000007bffffffffffffffffffffffffffffffffffffffffffffffffffffffff1916827bffffffffffffffffffffffffffffffffffffffffffffffffffffffff191614806103ac57507f5b5e139f000000000000000000000000000000000000000000000000000000007bffffffffffffffffffffffffffffffffffffffffffffffffffffffff1916827bffffffffffffffffffffffffffffffffffffffffffffffffffffffff1916145b806103bc57506103bb82610b8d565b5b9050919050565b6060600080546103d290612020565b80601f01602080910402602001604051908101604052809291908181526020018280546103fe90612020565b801561044b5780601f106104205761010080835404028352916020019161044b565b820191906000526020600020905b81548152906001019060200180831161042e57829003601f168201915b5050505050905090565b600061046082610bf7565b6004600083815260200190815260200160002060009054906101000a900473ffffffffffffffffffffffffffffffffffffffff169050919050565b60006104a682610633565b90508073ffffffffffffffffffffffffffffffffffffffff168373ffffffffffffffffffffffffffffffffffffffff161415610517576040517f08c379a000000000000000000000000000000000000000000000000000000000815260040161050e906120c4565b60405180910390fd5b8073ffffffffffffffffffffffffffffffffffffffff16610536610c42565b73ffffffffffffffffffffffffffffffffffffffff16148061056557506105648161055f610c42565b610a60565b5b6105a4576040517f08c379a000000000000000000000000000000000000000000000000000000000815260040161059b90612156565b60405180910390fd5b6105ae8383610c4a565b505050565b6105c46105be610c42565b82610d03565b610603576040517f08c379a00000000000000000000000000000000000000000000000000000000081526004016105fa906121e8565b60405180910390fd5b61060e838383610d98565b505050565b61062e83838360405180602001604052806000815250610845565b505050565b6000806002600084815260200190815260200160002060009054906101000a900473ffffffffffffffffffffffffffffffffffffffff169050600073ffffffffffffffffffffffffffffffffffffffff168173ffffffffffffffffffffffffffffffffffffffff1614156106dc576040517f08c379a00000000000000000000000000000000000000000000000000000000081526004016106d390612254565b60405180910390fd5b80915050919050565b60008073ffffffffffffffffffffffffffffffffffffffff168273ffffffffffffffffffffffffffffffffffffffff161415610756576040517f08c379a000000000000000000000000000000000000000000000000000000000815260040161074d906122e6565b60405180910390fd5b600360008373ffffffffffffffffffffffffffffffffffffffff1673ffffffffffffffffffffffffffffffffffffffff168152602001908152602001600020549050919050565b6060600180546107ac90612020565b80601f01602080910402602001604051908101604052809291908181526020018280546107d890612020565b80156108255780601f106107fa57610100808354040283529160200191610825565b820191906000526020600020905b81548152906001019060200180831161080857829003601f168201915b5050505050905090565b61084161083a610c42565b8383610fff565b5050565b610856610850610c42565b83610d03565b610895576040517f08c379a000000000000000000000000000000000000000000000000000000000815260040161088c906121e8565b60405180910390fd5b6108a18484848461116c565b50505050565b60606108b282610bf7565b60006006600084815260200190815260200160002080546108d290612020565b80601f01602080910402602001604051908101604052809291908181526020018280546108fe90612020565b801561094b5780601f106109205761010080835404028352916020019161094b565b820191906000526020600020905b81548152906001019060200180831161092e57829003601f168201915b50505050509050600061095c6111c8565b90506000815114156109725781925050506109b5565b6000825111156109a757808260405160200161098f929190612342565b604051602081830303815290604052925050506109b5565b6109b0846111df565b925050505b919050565b60006109c66007611247565b90506109d23382611255565b6109f781604051806103e001604052806103b58152602001612a246103b59139611273565b610a1a6040518060600160405280602581526020016129ff6025913982336112e7565b610a246007611386565b7febb98688741ffa4c7589bf325de30cf7becb63de567842e1ccdb6cb949fdc82c3382604051610a55929190612366565b60405180910390a150565b6000600560008473ffffffffffffffffffffffffffffffffffffffff1673ffffffffffffffffffffffffffffffffffffffff16815260200190815260200160002060008373ffffffffffffffffffffffffffffffffffffffff1673ffffffffffffffffffffffffffffffffffffffff16815260200190815260200160002060009054906101000a900460ff16905092915050565b610b8a81604051602401610b089190611b96565b6040516020818303038152906040527f41304fac000000000000000000000000000000000000000000000000000000007bffffffffffffffffffffffffffffffffffffffffffffffffffffffff19166020820180517bffffffffffffffffffffffffffffffffffffffffffffffffffffffff838183161783525050505061139c565b50565b60007f01ffc9a7000000000000000000000000000000000000000000000000000000007bffffffffffffffffffffffffffffffffffffffffffffffffffffffff1916827bffffffffffffffffffffffffffffffffffffffffffffffffffffffff1916149050919050565b610c00816113c5565b610c3f576040517f08c379a0000000000000000000000000000000000000000000000000000000008152600401610c3690612254565b60405180910390fd5b50565b600033905090565b816004600083815260200190815260200160002060006101000a81548173ffffffffffffffffffffffffffffffffffffffff021916908373ffffffffffffffffffffffffffffffffffffffff160217905550808273ffffffffffffffffffffffffffffffffffffffff16610cbd83610633565b73ffffffffffffffffffffffffffffffffffffffff167f8c5be1e5ebec7d5bd14f71427d1e84f3dd0314c0f7b2291e5b200ac8c7c3b92560405160405180910390a45050565b600080610d0f83610633565b90508073ffffffffffffffffffffffffffffffffffffffff168473ffffffffffffffffffffffffffffffffffffffff161480610d515750610d508185610a60565b5b80610d8f57508373ffffffffffffffffffffffffffffffffffffffff16610d7784610455565b73ffffffffffffffffffffffffffffffffffffffff16145b91505092915050565b8273ffffffffffffffffffffffffffffffffffffffff16610db882610633565b73ffffffffffffffffffffffffffffffffffffffff1614610e0e576040517f08c379a0000000000000000000000000000000000000000000000000000000008152600401610e0590612401565b60405180910390fd5b600073ffffffffffffffffffffffffffffffffffffffff168273ffffffffffffffffffffffffffffffffffffffff161415610e7e576040517f08c379a0000000000000000000000000000000000000000000000000000000008152600401610e7590612493565b60405180910390fd5b610e89838383611431565b610e94600082610c4a565b6001600360008573ffffffffffffffffffffffffffffffffffffffff1673ffffffffffffffffffffffffffffffffffffffff1681526020019081526020016000206000828254610ee491906124e2565b925050819055506001600360008473ffffffffffffffffffffffffffffffffffffffff1673ffffffffffffffffffffffffffffffffffffffff1681526020019081526020016000206000828254610f3b9190612516565b92505081905550816002600083815260200190815260200160002060006101000a81548173ffffffffffffffffffffffffffffffffffffffff021916908373ffffffffffffffffffffffffffffffffffffffff160217905550808273ffffffffffffffffffffffffffffffffffffffff168473ffffffffffffffffffffffffffffffffffffffff167fddf252ad1be2c89b69c2b068fc378daa952ba7f163c4a11628f55a4df523b3ef60405160405180910390a4610ffa838383611436565b505050565b8173ffffffffffffffffffffffffffffffffffffffff168373ffffffffffffffffffffffffffffffffffffffff16141561106e576040517f08c379a0000000000000000000000000000000000000000000000000000000008152600401611065906125b8565b60405180910390fd5b80600560008573ffffffffffffffffffffffffffffffffffffffff1673ffffffffffffffffffffffffffffffffffffffff16815260200190815260200160002060008473ffffffffffffffffffffffffffffffffffffffff1673ffffffffffffffffffffffffffffffffffffffff16815260200190815260200160002060006101000a81548160ff0219169083151502179055508173ffffffffffffffffffffffffffffffffffffffff168373ffffffffffffffffffffffffffffffffffffffff167f17307eab39ab6107e8899845ad3d59bd9653f200f220920489ca2b5937696c318360405161115f9190611ae2565b60405180910390a3505050565b611177848484610d98565b6111838484848461143b565b6111c2576040517f08c379a00000000000000000000000000000000000000000000000000000000081526004016111b99061264a565b60405180910390fd5b50505050565b606060405180602001604052806000815250905090565b60606111ea82610bf7565b60006111f46111c8565b90506000815111611214576040518060200160405280600081525061123f565b8061121e846115d2565b60405160200161122f929190612342565b6040516020818303038152906040525b915050919050565b600081600001549050919050565b61126f828260405180602001604052806000815250611733565b5050565b61127c826113c5565b6112bb576040517f08c379a00000000000000000000000000000000000000000000000000000000081526004016112b2906126dc565b60405180910390fd5b806006600084815260200190815260200160002090805190602001906112e292919061198b565b505050565b6113818383836040516024016112ff939291906126fc565b6040516020818303038152906040527f1c7ec448000000000000000000000000000000000000000000000000000000007bffffffffffffffffffffffffffffffffffffffffffffffffffffffff19166020820180517bffffffffffffffffffffffffffffffffffffffffffffffffffffffff838183161783525050505061139c565b505050565b6001816000016000828254019250508190555050565b60008151905060006a636f6e736f6c652e6c6f679050602083016000808483855afa5050505050565b60008073ffffffffffffffffffffffffffffffffffffffff166002600084815260200190815260200160002060009054906101000a900473ffffffffffffffffffffffffffffffffffffffff1673ffffffffffffffffffffffffffffffffffffffff1614159050919050565b505050565b505050565b600061145c8473ffffffffffffffffffffffffffffffffffffffff1661178e565b156115c5578373ffffffffffffffffffffffffffffffffffffffff1663150b7a02611485610c42565b8786866040518563ffffffff1660e01b81526004016114a7949392919061278f565b602060405180830381600087803b1580156114c157600080fd5b505af19250505080156114f257506040513d601f19601f820116820180604052508101906114ef91906127f0565b60015b611575573d8060008114611522576040519150601f19603f3d011682016040523d82523d6000602084013e611527565b606091505b5060008151141561156d576040517f08c379a00000000000000000000000000000000000000000000000000000000081526004016115649061264a565b60405180910390fd5b805181602001fd5b63150b7a0260e01b7bffffffffffffffffffffffffffffffffffffffffffffffffffffffff1916817bffffffffffffffffffffffffffffffffffffffffffffffffffffffff1916149150506115ca565b600190505b949350505050565b6060600082141561161a576040518060400160405280600181526020017f3000000000000000000000000000000000000000000000000000000000000000815250905061172e565b600082905060005b6000821461164c5780806116359061281d565b915050600a826116459190612895565b9150611622565b60008167ffffffffffffffff81111561166857611667611e03565b5b6040519080825280601f01601f19166020018201604052801561169a5781602001600182028036833780820191505090505b5090505b60008514611727576001826116b391906124e2565b9150600a856116c291906128c6565b60306116ce9190612516565b60f81b8183815181106116e4576116e36128f7565b5b60200101907effffffffffffffffffffffffffffffffffffffffffffffffffffffffffffff1916908160001a905350600a856117209190612895565b945061169e565b8093505050505b919050565b61173d83836117b1565b61174a600084848461143b565b611789576040517f08c379a00000000000000000000000000000000000000000000000000000000081526004016117809061264a565b60405180910390fd5b505050565b6000808273ffffffffffffffffffffffffffffffffffffffff163b119050919050565b600073ffffffffffffffffffffffffffffffffffffffff168273ffffffffffffffffffffffffffffffffffffffff161415611821576040517f08c379a000000000000000000000000000000000000000000000000000000000815260040161181890612972565b60405180910390fd5b61182a816113c5565b1561186a576040517f08c379a0000000000000000000000000000000000000000000000000000000008152600401611861906129de565b60405180910390fd5b61187660008383611431565b6001600360008473ffffffffffffffffffffffffffffffffffffffff1673ffffffffffffffffffffffffffffffffffffffff16815260200190815260200160002060008282546118c69190612516565b92505081905550816002600083815260200190815260200160002060006101000a81548173ffffffffffffffffffffffffffffffffffffffff021916908373ffffffffffffffffffffffffffffffffffffffff160217905550808273ffffffffffffffffffffffffffffffffffffffff16600073ffffffffffffffffffffffffffffffffffffffff167fddf252ad1be2c89b69c2b068fc378daa952ba7f163c4a11628f55a4df523b3ef60405160405180910390a461198760008383611436565b5050565b82805461199790612020565b90600052602060002090601f0160209004810192826119b95760008555611a00565b82601f106119d257805160ff1916838001178555611a00565b82800160010185558215611a00579182015b828111156119ff5782518255916020019190600101906119e4565b5b509050611a0d9190611a11565b5090565b5b80821115611a2a576000816000905550600101611a12565b5090565b6000604051905090565b600080fd5b600080fd5b60007fffffffff0000000000000000000000000000000000000000000000000000000082169050919050565b611a7781611a42565b8114611a8257600080fd5b50565b600081359050611a9481611a6e565b92915050565b600060208284031215611ab057611aaf611a38565b5b6000611abe84828501611a85565b91505092915050565b60008115159050919050565b611adc81611ac7565b82525050565b6000602082019050611af76000830184611ad3565b92915050565b600081519050919050565b600082825260208201905092915050565b60005b83811015611b37578082015181840152602081019050611b1c565b83811115611b46576000848401525b50505050565b6000601f19601f8301169050919050565b6000611b6882611afd565b611b728185611b08565b9350611b82818560208601611b19565b611b8b81611b4c565b840191505092915050565b60006020820190508181036000830152611bb08184611b5d565b905092915050565b6000819050919050565b611bcb81611bb8565b8114611bd657600080fd5b50565b600081359050611be881611bc2565b92915050565b600060208284031215611c0457611c03611a38565b5b6000611c1284828501611bd9565b91505092915050565b600073ffffffffffffffffffffffffffffffffffffffff82169050919050565b6000611c4682611c1b565b9050919050565b611c5681611c3b565b82525050565b6000602082019050611c716000830184611c4d565b92915050565b611c8081611c3b565b8114611c8b57600080fd5b50565b600081359050611c9d81611c77565b92915050565b60008060408385031215611cba57611cb9611a38565b5b6000611cc885828601611c8e565b9250506020611cd985828601611bd9565b9150509250929050565b600080600060608486031215611cfc57611cfb611a38565b5b6000611d0a86828701611c8e565b9350506020611d1b86828701611c8e565b9250506040611d2c86828701611bd9565b9150509250925092565b600060208284031215611d4c57611d4b611a38565b5b6000611d5a84828501611c8e565b91505092915050565b611d6c81611bb8565b82525050565b6000602082019050611d876000830184611d63565b92915050565b611d9681611ac7565b8114611da157600080fd5b50565b600081359050611db381611d8d565b92915050565b60008060408385031215611dd057611dcf611a38565b5b6000611dde85828601611c8e565b9250506020611def85828601611da4565b9150509250929050565b600080fd5b600080fd5b7f4e487b7100000000000000000000000000000000000000000000000000000000600052604160045260246000fd5b611e3b82611b4c565b810181811067ffffffffffffffff82111715611e5a57611e59611e03565b5b80604052505050565b6000611e6d611a2e565b9050611e798282611e32565b919050565b600067ffffffffffffffff821115611e9957611e98611e03565b5b611ea282611b4c565b9050602081019050919050565b82818337600083830152505050565b6000611ed1611ecc84611e7e565b611e63565b905082815260208101848484011115611eed57611eec611dfe565b5b611ef8848285611eaf565b509392505050565b600082601f830112611f1557611f14611df9565b5b8135611f25848260208601611ebe565b91505092915050565b60008060008060808587031215611f4857611f47611a38565b5b6000611f5687828801611c8e565b9450506020611f6787828801611c8e565b9350506040611f7887828801611bd9565b925050606085013567ffffffffffffffff811115611f9957611f98611a3d565b5b611fa587828801611f00565b91505092959194509250565b60008060408385031215611fc857611fc7611a38565b5b6000611fd685828601611c8e565b9250506020611fe785828601611c8e565b9150509250929050565b7f4e487b7100000000000000000000000000000000000000000000000000000000600052602260045260246000fd5b6000600282049050600182168061203857607f821691505b6020821081141561204c5761204b611ff1565b5b50919050565b7f4552433732313a20617070726f76616c20746f2063757272656e74206f776e6560008201527f7200000000000000000000000000000000000000000000000000000000000000602082015250565b60006120ae602183611b08565b91506120b982612052565b604082019050919050565b600060208201905081810360008301526120dd816120a1565b9050919050565b7f4552433732313a20617070726f76652063616c6c6572206973206e6f7420746f60008201527f6b656e206f776e6572206e6f7220617070726f76656420666f7220616c6c0000602082015250565b6000612140603e83611b08565b915061214b826120e4565b604082019050919050565b6000602082019050818103600083015261216f81612133565b9050919050565b7f4552433732313a2063616c6c6572206973206e6f7420746f6b656e206f776e6560008201527f72206e6f7220617070726f766564000000000000000000000000000000000000602082015250565b60006121d2602e83611b08565b91506121dd82612176565b604082019050919050565b60006020820190508181036000830152612201816121c5565b9050919050565b7f4552433732313a20696e76616c696420746f6b656e2049440000000000000000600082015250565b600061223e601883611b08565b915061224982612208565b602082019050919050565b6000602082019050818103600083015261226d81612231565b9050919050565b7f4552433732313a2061646472657373207a65726f206973206e6f74206120766160008201527f6c6964206f776e65720000000000000000000000000000000000000000000000602082015250565b60006122d0602983611b08565b91506122db82612274565b604082019050919050565b600060208201905081810360008301526122ff816122c3565b9050919050565b600081905092915050565b600061231c82611afd565b6123268185612306565b9350612336818560208601611b19565b80840191505092915050565b600061234e8285612311565b915061235a8284612311565b91508190509392505050565b600060408201905061237b6000830185611c4d565b6123886020830184611d63565b9392505050565b7f4552433732313a207472616e736665722066726f6d20696e636f72726563742060008201527f6f776e6572000000000000000000000000000000000000000000000000000000602082015250565b60006123eb602583611b08565b91506123f68261238f565b604082019050919050565b6000602082019050818103600083015261241a816123de565b9050919050565b7f4552433732313a207472616e7366657220746f20746865207a65726f2061646460008201527f7265737300000000000000000000000000000000000000000000000000000000602082015250565b600061247d602483611b08565b915061248882612421565b604082019050919050565b600060208201905081810360008301526124ac81612470565b9050919050565b7f4e487b7100000000000000000000000000000000000000000000000000000000600052601160045260246000fd5b60006124ed82611bb8565b91506124f883611bb8565b92508282101561250b5761250a6124b3565b5b828203905092915050565b600061252182611bb8565b915061252c83611bb8565b9250827fffffffffffffffffffffffffffffffffffffffffffffffffffffffffffffffff03821115612561576125606124b3565b5b828201905092915050565b7f4552433732313a20617070726f766520746f2063616c6c657200000000000000600082015250565b60006125a2601983611b08565b91506125ad8261256c565b602082019050919050565b600060208201905081810360008301526125d181612595565b9050919050565b7f4552433732313a207472616e7366657220746f206e6f6e20455243373231526560008201527f63656976657220696d706c656d656e7465720000000000000000000000000000602082015250565b6000612634603283611b08565b915061263f826125d8565b604082019050919050565b6000602082019050818103600083015261266381612627565b9050919050565b7f45524337323155524953746f726167653a2055524920736574206f66206e6f6e60008201527f6578697374656e7420746f6b656e000000000000000000000000000000000000602082015250565b60006126c6602e83611b08565b91506126d18261266a565b604082019050919050565b600060208201905081810360008301526126f5816126b9565b9050919050565b600060608201905081810360008301526127168186611b5d565b90506127256020830185611d63565b6127326040830184611c4d565b949350505050565b600081519050919050565b600082825260208201905092915050565b60006127618261273a565b61276b8185612745565b935061277b818560208601611b19565b61278481611b4c565b840191505092915050565b60006080820190506127a46000830187611c4d565b6127b16020830186611c4d565b6127be6040830185611d63565b81810360608301526127d08184612756565b905095945050505050565b6000815190506127ea81611a6e565b92915050565b60006020828403121561280657612805611a38565b5b6000612814848285016127db565b91505092915050565b600061282882611bb8565b91507fffffffffffffffffffffffffffffffffffffffffffffffffffffffffffffffff82141561285b5761285a6124b3565b5b600182019050919050565b7f4e487b7100000000000000000000000000000000000000000000000000000000600052601260045260246000fd5b60006128a082611bb8565b91506128ab83611bb8565b9250826128bb576128ba612866565b5b828204905092915050565b60006128d182611bb8565b91506128dc83611bb8565b9250826128ec576128eb612866565b5b828206905092915050565b7f4e487b7100000000000000000000000000000000000000000000000000000000600052603260045260246000fd5b7f4552433732313a206d696e7420746f20746865207a65726f2061646472657373600082015250565b600061295c602083611b08565b915061296782612926565b602082019050919050565b6000602082019050818103600083015261298b8161294f565b9050919050565b7f4552433732313a20746f6b656e20616c7265616479206d696e74656400000000600082015250565b60006129c8601c83611b08565b91506129d382612992565b602082019050919050565b600060208201905081810360008301526129f7816129bb565b905091905056fe416e204e465420772f20494420257320686173206265656e206d696e74656420746f202573646174613a6170706c69636174696f6e2f6a736f6e3b6261736536342c65776f6749434a755957316c496a6f67496b567761574e4f5a6e5244636d5668644739794969774b494341695a47567a59334a7063485270623234694f6941695647686c494768705a3268736553426859324e7359576c745a5751676333463159584a6c49474e766247786c59335270623234694c416f6749434a706257466e5a53493649434a6b595852684f6d6c745957646c4c334e325a79743462577737596d467a5a5459304c464249546a4a616432396e5355686f64474a484e587051553070765a456853643039704f485a6b4d32517a5447356a656b78744f586c6165546835545552426430777a546a4a6165556c4c53554e4364324e74566e706157456f79576c5647656d4e48566d706b526b706f5a456473646c4254536a5255563278315631557863474a70516e526156315977535764765a306c49576e426157475244596a4e6e4f556c715157644e51304636546c52425a3031365658644a5a32387251326c425a314249546a426c56336873554764765a306c445157644d6255706f597a4a565a3256336232644a5130466e53554e436257465865484e506155497a595564734d4670556330744a5130466e53554e425a3170744f58566b517a46745756637863474a49617a5a4a5345357359323173625539336232644a5130466e53554e43625749794e54424d574535775a5731564e6b6c455254426a5347633351326c425a306c44516a6c446155466e55454d35656d524962484e615644524c53554e424f474e74566d706b5130497a595664534d4746454d476c4e56454633536c4e4a5a324648566e42614d6d677755464e4a654531455157784a61554a745956643463314254536a426156305a7a53576c42646c426e6232644a52486777576c686f4d454e705157644a5130493055464e4a4d55314456576c446155466e53554e434e5642545354464e5131567051326c425a306c44516d706952305a3659336f7761566c74526e706155306c4c53554e425a306c48556e5a6956327831575663314d457858536d686a4d6c5a7a5956633162464254536e526856314a72596b645661554e705157644a51304977576c686f4d457858526e565a4d6d683259326f7761574a586247746152336873535764765a306c454e45744a5130466e5355566f554652466246524a52564a4356486c43546c70584d576c61574570365955647364306c464e5564575345314c53554e424f45777a556d786c5346457251327033646d4d7a576d35515a7a303949677039a2646970667358221220dfedc559968d631c56b0d9b9fd184467ed480f2e47eaa845eeea7a42094f8d0764736f6c63430008090033",
    "linkReferences": {},
    "deployedLinkReferences": {}
}